:10000000403200208D28000007AF00007928000052
:1000100079280000792800007928000000000000FD
:10002000000000000000000000000000452A000061
:100030007928000000000000112A00007928000043
:10004000F92B0000F92B0000F92B0000F92B000020
:10005000F92B0000F92B0000F92B0000F92B000010
:10006000F92B0000F92B0000F92B0000F92B000000
:10007000F92B0000F92B0000F92B0000F92B0000F0
:10008000F92B0000F92B0000F92B0000F92B0000E0
:10009000F92B0000F92B0000F92B0000F92B0000D0
:1000A000F92B0000F92B0000F92B0000F92B0000C0
:1000B000F92B0000F92B0000F92B0000F92B0000B0
:1000C000F92B0000F92B0000F92B0000F92B0000A0
:1000D000F92B0000F92B0000F92B0000F92B000090
:1000E000F92B0000F92B0000F92B0000F92B000080
:1000F000F92B0000F92B0000F92B0000F92B000070
:100100007BB972B90029BEBF00204FF0004106E064
:1001100008BF00281CBF6FF000414FF0FF3000F017
:1001200057B8ADF1080C6DE904CE002909DB002BAE
:100130001ADB00F057F8DDF804E0DDE9022304B033
:100140007047404261EB4101002B1BDB00F04AF895
:10015000DDF804E0DDE9022304B0404261EB410137
:10016000524263EB43037047524263EB430300F098
:1001700039F8DDF804E0DDE9022304B0404261EB28
:1001800041017047524263EB430300F02BF8DDF866
:1001900004E0DDE9022304B0524263EB43037047FD
:1001A00053B94AB9002908BF00281CBF4FF0FF31DE
:1001B0004FF0FF3000F00CB8ADF1080C6DE904CE43
:1001C00000F010F8DDF804E0DDE9022304B0704728
:1001D000704700BF034613F8012B002AFBD1181A01
:1001E000013870472DE9F04786468C460846089E40
:1001F000154674461946002B40F0C2808542B2FA7B
:1002000082F245D94AB1C2F1200300FA02FC2EFA6B
:1002100003F3954043EA0C0C94404FEA154EA8B204
:10022000BCFBFEF8230C0EFB18CC08FB00F943EADC
:100230000C43994528D9EB1808F1FF3704D29945AA
:1002400002D9A8F102072B44A3EB0903A4B2B3FB24
:10025000FEFC0EFB1C330CFB00F044EA0344A042FE
:1002600014D92C190CF1FF3304D2A04202D9ACF1FD
:1002700002032C44241A43EA07401EB1D440002351
:1002800034607360BDE8F0874746DDE76346F1E719
:1002900092BB431B01214FEA154EAFB2B3FBFEFCEC
:1002A000200C0EFB1C330CFB07F840EA0343984577
:1002B00062D9EB180CF1FF3004D2984502D9ACF1A9
:1002C00002002B44A3EB0803A4B2B3FBFEFC0EFB1D
:1002D0001C330CFB07F744EA0344A7424ED92C1900
:1002E0000CF1FF3304D2A74202D9ACF102032C4433
:1002F000E41B43EA0040C0E7C2F1200320FA03F107
:10030000954090402EFA03F303434FEA154EAFB2E7
:10031000B1FBFEFC0EFB1C10190C0CFB07F841EAAC
:100320000041884504FA02F422D969180CF1FF3023
:1003300004D2884502D9ACF102002944A1EB08019E
:100340009BB2B1FBFEFC0EFB1C110CFB07F743EA52
:1003500001439F420ED9EB180CF1FF3104D29F42AA
:1003600002D9ACF102012B44DB1B41EA004192E7C8
:100370006046E3E76146F7E76046A3E76346B7E711
:10038000834206D916B9002108467BE7C6E900E09A
:10039000F9E7B3FA83F78FB9834201D3724508D8DE
:1003A000BEEB020460EB030301209C461EB9002152
:1003B00068E73846FAE7C6E9004CF8E7C7F1200CD1
:1003C000BB4022FA0CF41C432EFA0CF120FA0CF379
:1003D000B84001434FEA14490EFA07F5B3FBF9F8A8
:1003E0001FFA84FE09FB18300B0C08FB0EFA43EAD7
:1003F00000439A4502FA07F240D9E31808F1FF30AA
:1004000004D29A4502D9A8F102002344A3EB0A03BF
:1004100089B2B3FBF9F809FB183308FB0EFE41EA79
:1004200003418E452CD9611808F1FF3304D28E4563
:1004300002D9A8F10203214443EA0040A0FB02983C
:10044000A1EB0E014145CE46434602D306D14D45B0
:1004500004D2B9EB020E68EB04030138002EA6D0DB
:10046000B5EB0E0261EB030101FA0CFC22FA07F373
:100470004CEA0303F940C6E9003198E74046C5E776
:100480004346D9E700000000F0B51E4603698C46DC
:10049000054617460FCB85B06C46BCF1070F84E8C4
:1004A0000F0032D8BCF1030F35D9002F40F0C880BF
:1004B0003388B3F5FA4F80F0AF80B3F57A5F80F000
:1004C000AD80B3F5FA5F80F0AB80B3F57A6F80F062
:1004D000A980B3F5FA6F80F0A780B3F57A7F80F03A
:1004E000A580B3F5FA7F80F0A380C72B00F2A2802D
:1004F000632B00F2A180312B00F2A080192B34BFB6
:100500000B230A238DF805302FE0BCF13C0F00F0DF
:10051000E1807949DAE0002F46D13388B3F5FA4F0C
:1005200028D2B3F57A5F27D2B3F5FA5F26D2B3F5B6
:100530007A6F25D2B3F5FA6F24D2B3F57A7F23D23E
:10054000B3F5FA7F22D2C72B22D8632B22D8312BC6
:1005500022D8182B22D80B2B22D8052B22D8032BDC
:1005600034BF0E230D238DF80230214628460AF0B1
:10057000CDFE4FE00123F6E70223F4E70323F2E781
:100580000423F0E70523EEE70623ECE70F23EAE771
:100590000723E8E70823E6E70923E4E70A23E2E77D
:1005A0000B23E0E70C23DEE7072F2DD173685348B8
:1005B0003668D917C6FB0031012B71F1000217DB39
:1005C00000F56E1000F65D70181847A3D3E90023FC
:1005D00041F10001FFF794FDC0B20F2810D80728A1
:1005E00010D8042834BF032302238DF80130BCE760
:1005F0004348181861F100013BA3D3E90023E9E760
:100600000023F2E70123F0E73E483F490AF05EFE8F
:100610006FF0850005B0F0BD012373E7022371E799
:1006200003236FE704236DE705236BE7062369E7E0
:100630000F2367E7072365E7082363E7092361E7DB
:10064000072F42D1736830682C49DA17C0FB01329A
:10065000B426A3FB0601012B06FB021172F1000276
:100660001FDB2A4BC01822A3D3E9002341F100016C
:10067000FFF746FD83B2B3F5FA6F1AD2B3F57A7F6E
:1006800019D2B3F5FA7F18D2F92B18D87C2B18D8C9
:100690003D2B18D81F2B34BF072306238DF80430B9
:1006A00063E71B4BC01861F1000111A3D3E90023DC
:1006B000DEE70023F2E70123F0E70223EEE703235E
:1006C000ECE70423EAE70523E8E70F490D480AF0C1
:1006D000FDFD04E00F2FF8D13368002B02DA6FF034
:1006E000150097E7029340E73AA395000000000049
:1006F000D8EF2F00000000003BD7000040420F0061
:10070000632EB5FF80C5000025D70000ECF7170069
:100710001408E8FF30B58BB0002301AA8DF8013032
:10072000ADF804300223CDE90423039302AB60F05B
:100730007F00069304AA0123CDE908230C468DF817
:100740000000CDF808D0079306480749836806AA39
:100750001D6808ABA84710B99DF8053023700BB091
:1007600030BD00BFACC30000C004002010B586B08F
:1007700001AB02930223039302AB049301238DF890
:1007800004008DF80510059304480549836804AA00
:100790001C680023A04706B010BD00BFACC300001A
:1007A000C004002013B532480BF05FF910B931488E
:1007B00009F0C7FA304809F0C4FA00211120FFF708
:1007C000D5FF002814DA2D4809F0BBFA2C4809F0AF
:1007D000B8FA00230DF1070175208DF80730FFF7F7
:1007E00099FF00281BDA274809F0ABFA264822E0D7
:1007F00000214FF4A47007F043FB0C214E20FFF7BB
:10080000B5FF002801DA2148DEE706214F20FFF777
:10081000ADFF002801DA1E48D6E71E48D7E79DF84D
:100820000710472903D01C4809F08BFADEE71B4864
:1008300009F087FA1A481B4C09F083FA0DF10601FA
:100840002720FFF767FF0DF107012820FFF762FF60
:100850009DF806309DF8071041EA032109B22046B1
:1008600009F06FFA002140F6CD4007F009FBE5E7FB
:10087000ACC30000C0CD0000D7CD0000F4CD000017
:1008800074CE000094CE00003ACF00000ECE0000DF
:100890002BCE000053CE0000B6CE0000D9CE000013
:1008A0000DCF000066CF00002DE9F04F91B0840716
:1008B000009302F004030293C2F3C20303F10103A5
:1008C000DDF86890039205460E46059340F0BA8124
:1008D000041D30B1072909D86FF01B0011B0BDE825
:1008E000F08F01F00706341DC6F10806009B4FF09B
:1008F0000008591E4FF0040A4FF0FF330193CDF862
:1009000010804746C34653460DB1009A22600598B1
:10091000002800F3E8809848009A824203D3974861
:100920008242C0F0E080039AA4EB050E92074FEAE2
:100930009E0000F103810F2F00F2B180002D00F026
:10094000058107F140020DEB020C019A0CF8200C16
:100950000CF8102C049801300490E7E07A285DD858
:100960004B280ED8472859D829282DD8252852D0C9
:1009700054D820287AD02338D0F1000B4BEB000B51
:1009800074E04C382E2849D8DFE800F07048484819
:1009900048484848484848484B48484848484848D4
:1009A0004859484B4B595959704B6D487048184B32
:1009B000184848827F4B48484B487F0000204FF042
:1009C000000B4FF0040A38E02A38C0B2012202FAC4
:1009D00000F010EA0E0F49D110F0625C2FD110EA3E
:1009E000020B43D06046013C5444B4FBFAF40AFBCA
:1009F00004F4002D61D0A3EB050CA444B4453FF6EC
:100A00006BAF002868D1042B47D159F8043B236011
:100A1000043404232AE0019A013A01924FF0000BBA
:100A200024E011F8010C6C2834D111F8023C0020AC
:100A30006C2B8346C5D14FF0080A5346D3E709F122
:100A4000070929F007090734F9E802AB24F0070485
:100A500035B106982044B0423FF63EAFC4E900AB42
:100A600008344FF0000B4FF0080A534611F8010FFD
:100A7000002878D0BBF1000F7FF470AF2528F5D1A6
:100A8000019B013301934FF0010B4FF0040AECE797
:100A9000584694E700208346A5E7082B02D06FF064
:100AA00015001BE709F1070929F00709F9E80223F6
:100AB000C4E9002308340823D8E768B9042B02D11D
:100AC00009F10409A4E7082BE9D109F1070929F084
:100AD000070909F10809EDE7059A013A059259F865
:100AE000042B009210E7039A900720D5A4EB050E83
:100AF0004FEA9E004FF0010CBEF5007FCFD20F2FC2
:100B0000CDD8F5B107F140020DEB020EC0B2019A4B
:100B10000EF8200C0EF8102CBCF1000F3FF41AAFA9
:100B200060F07F000EF8200C08F101080137C5F1D4
:100B30000802043406924FF6DA7E97E74FF0000C75
:100B4000DAE7BCF1000F01D00136EFE70298023678
:100B50000028EBD10098CDE90631FFF73BFBDDE93A
:100B600006310644E2E7631BB3F5806F97D23DB9C7
:100B7000A6F10804E018B1E6BCC20000CCDD00001C
:100B8000029A28609B082B709DF81030C2B1EB7060
:100B900085F80280B8F1000F05D008A80022C5F141
:100BA000010C97420ED1C5F101030DF120094FF060
:100BB000000A01930DF1300B574512D1601B8DE6F1
:100BC0006B70E5E710F8013B190608D504EB0C0E35
:100BD000B64503F07F033FF67FAE04F8013B0132D8
:100BE000DFE7B8F1000F03D099F90020002A17DBE6
:100BF000029BD3B11AF80B2004F8012B0022019BB1
:100C000098182044B0423FF667AE99F8000004F807
:100C1000010B0099039220460BF06BF9039A1444E0
:100C20000AF1010A09F10109C6E799F8002055F80F
:100C300022300093029B45F822300098FFF7CAFA51
:100C4000421CDCE76FF00D0048E600BF2DE9F04FD5
:100C500097B000AF90F802A0D7F880B03B62CBF31A
:100C6000C0030446FA62BB61894641B94578007801
:100C70000AEB800020444D4517D8A0EB0409E37827
:100C8000FB61BAF1000F02D01BF0010F16D1FB6916
:100C900053BBFB6A1BB13A6A4946204698474D460A
:100CA00028465C37BD46BDE8F08F461C3046FFF74E
:100CB00091FA0130304409F10109DCE723786268D8
:100CC0007A62FA6A9900796104EB8301002A40F0A4
:100CD00000814D460E4601EB0A094FF000084E45D3
:100CE0004CD101EB0A0610E01BF0020FD1D02378A3
:100CF0009A007A6162687A62FA6A04EB8301002AD8
:100D000077D14D4601EB0A0690461BF0050F0CBF4C
:100D100002230123FB62FB6906EB430A0BF002038B
:100D2000BB625645BCD016F8021B16F8013C54F8BD
:100D30002390AF4B994502D3AE4B994536D3BB694F
:100D4000002B40D0786A08F0D5FF00283BD0E94658
:100D50008AB06A46A84B53617B6AC2E906314FF4F8
:100D600000731384A54B42F8103FA54800234FF4AD
:100D7000125100F067FE023DCD46D2E716F8013B66
:100D8000F96254F82300FFF725FAD7F88430F96A9E
:100D900001304BB1D7F8883098453EBFD7F8843042
:100DA00023F8180008F10108054498E7BB6923B14E
:100DB000786A08F09FFF0028C9D11BF0010F05D108
:100DC000FB6AED1AADE7BB6A002BAAD04846FFF7D5
:100DD00001FAD7F8843053B1D7F8883098453FBF2F
:100DE000D7F88420431C22F8183008F10108054484
:100DF00097E7BAF1000F72D01BF0040672D0D0460C
:100E0000002607F1480052463B61B9620BF071F8C9
:100E1000B96A3B6901EB0A02BA62FA69F9695200E0
:100E2000FA60BA6A02EB41023A610BF00202BA6060
:100E30003A69B96A8A4257D162787A621BF0020F26
:100E400032440CBF4FEA580100211BF0010FD2B20F
:100E500040F09F801BF0040F14BF40460020BB6190
:100E60006270A070E1703A6A7969FB6A204698471F
:100E7000051EFFF615AFBB6923707B6A6370FB69C3
:100E8000E37041463A6AFB6A84F802A007F1480021
:100E90009847B0F10008C0F2B5807B693A6AA9EBC7
:100EA0000A01C91AFB68C91AD7E90A03984700283A
:100EB000C0F2AA80A84408EB00054FF0000B07F130
:100EC000380AB34567D300213A6AFB6A0846984757
:100ED000E6E656464FF0000807F1380093E756461D
:100EE000D04697E7B04695E7BA6A12F8021BBA6295
:100EF00012F8015C3E4A54F82500904202D33D4A64
:100F000090421ED3BA6932B1786A7B6008F0F2FE73
:100F10007B6800288CD1BA6802BB08F1280207F16F
:100F2000300C08F10100944407F1580252FA80F0A5
:100F300008F102080CF8101C5FFA88F800F8105C41
:100F400076E7BA693AB1786A7B6008F0D3FE7B68CD
:100F500000287FF46DAF1BF0010F09D006F12802C5
:100F600007F13000711C161806F8205CCEB25FE75E
:100F70001BF0040F3FF45CAF08F1280207F13000CA
:100F800008F1010102EB000808F8105C5FFA81F833
:100F90004EE7002063E71BF80A3087F8373054F833
:100FA0002390D7F88430FBB133F81B803A6AFB6A90
:100FB000012107F137009847002825DB0544B8F1E7
:100FC000000F06D14846FFF705F900F101081FFAA6
:100FD00088F83A6AFB6A414648469847002813DB7E
:100FE00005440BF1010B6CE7D7F88480DEE700BF06
:100FF000BCC20000CCDD000077CF0000040000017F
:10100000A0C5000045464BE6054649E6014B186081
:10101000704700BFD404002080B505460E46174631
:10102000984606F04BFF03460BF03EF9DFF81890A8
:10103000044649F80030424630463946A84754F83D
:10104000090001F091FC00BF080000002DE987486D
:101050000646EFF31185202383F31288BFF36F8FC9
:101060002A4F00F1080A4FF0FF384FF0FF390121F5
:10107000504609F060F906F1140B0446002836D0FA
:101080000146504609F0FEF9BB68A360B3692046EB
:1010900040F820B963601C60BB68B46154F8202C30
:1010A0009A7354F81C2C1A611A7B22F010021A73DE
:1010B00085F31188BFF36F8F54F8183C9847EFF30E
:1010C0001185202383F31288BFF36F8FBB681B7BCE
:1010D00013F01003CBD1D4E900210A605160C4E9B8
:1010E0000033A360A4F1100006F028FABFE7CDE9B1
:1010F000008932462946304606F04EFDEFF3118551
:10110000202383F31288BFF36F8FB0E7841600208B
:1011100010B518220446002108300AF0F8FE044BEE
:10112000E36004F11403C4E90044C4E9053310BDCD
:1011300019A2000070B5044688B0E569084645F379
:10114000400611461A4600236FF00F05CDE902351F
:10115000CDE900430493CDE90666024B06F0E4FBBB
:1011600008B070BD4D1000002DE9F0471F4C204F16
:101170004FF08808BC4237D30020BDE8F087636891
:10118000D4F808A0DD1D636925F007057F35D90770
:1011900025F03F0505D50AEB461A5046FFF7B8FF84
:1011A00001E0002EF9D063695A0748BF43F00203FB
:1011B000CAF81C30D4E9031208FB06F9636806FB81
:1011C000052249445046FFF7B5FF63699B0705D5E3
:1011D000E3684B445A7B42F010025A73013623688D
:1011E000B342CCD81834C5E70026F8E768C500003C
:1011F00080C500002DE9F04105460C46EFF311864D
:10120000202383F31288BFF36F8F0AF001FB63681A
:10121000304AA16A034463609368994237D1D4E9A4
:1012200008310B6059600023C4E9083391680A7BD8
:1012300042F010020A73A36205F1080704F12008C6
:101240004146384609F084F8E5620121384609F044
:1012500072F880452CD12A4652F8143F93421ED092
:10126000EBB1203B00221946206851F8207B8742D1
:1012700006DC04D15F686068874200D000DC013280
:10128000A86981420AD01B6A43B1203BEBE70122E7
:10129000002104F110000AF080FCCDE742B9284695
:1012A0000AF084FD50B90C4A0C48022109F055FDA2
:1012B00086F31188BFF36F8FBDE8F08122688273D7
:1012C000626802610AF0FDFC31462846BDE8F04143
:1012D00006F0D6BC841600202BD00000D8C5000034
:1012E0002DE9F047058B04462807904611D40229C2
:1012F00005F0070540F0CC80204609F098FB78B156
:101300000138218B042811D8DFE800F0C2106D8568
:10131000950001290CBF45F0100545F020052583F7
:1013200088F31188BFF36F8FBDE8F08701F0070ADB
:10133000AA4500F0A5800027B9463E46A368002BC9
:1013400000F0BC8041F00801218388F31188BFF3CD
:101350006F8FA168002900F0BA800D68002900F0A5
:10136000B680D1F80480334652462046C047002D4F
:1013700076D02B6829461D46F0E701F007035A1F77
:10138000012A1BD8002221F00701062B276889B209
:10139000C4E9002209D13B4603E0628B013262833B
:1013A0001B68002BF9D141F002012183204609F08E
:1013B0003EFB00287AD041F0200176E0042B0AD1D0
:1013C00021F0070189B22183204609F030FB10B1DA
:1013D00041F020012183218B01F0070AAA454FD05B
:1013E0000027B946AAE7236921F0070141F0060169
:1013F000062DD3F8009021832DD1B9F1000F3FD0F5
:1014000041F00801218388F31188BFF36F8F3A49B7
:101410002046C84729E021F00701236941F0040173
:1014200089B2042DD3F804902183E6D000273E46EC
:101430004FF0040A82E721F00701236941F005011A
:1014400089B2052DD3F808902183D6D000273E46D7
:101450004FF0050A72E700273E464FF0060A6DE797
:101460002B4687E7B9F1000FD1D1EFF31188202384
:1014700083F31288BFF36F8F238B23F0080323833A
:10148000258BEA062ED525F01003238305F00705EA
:101490006669218B002EBFF670AF00232768C4E970
:1014A000003321F0070141F001012183218B01F07C
:1014B000070AAA454FF000097FF440AF002F9CD0E7
:1014C00041F00801218388F31188BFF36F8F002F4B
:1014D000C8D03D68394633465246204609F0D3FA13
:1014E0002F46F4E7AB067FF51BAF25F020032383DF
:1014F00005F0070500E700BFB3AA00002DE9F0479B
:10150000DFF85880044607464FF0010914B9384601
:10151000BDE8F08794FAA4F5B5FA85F509FA05F364
:101520002E0108EB05156FEA030A24EA03042B7B5E
:10153000002BEBD058F806301B694BB94644042207
:1015400073682846196807EA0A0700F067FADDE7BA
:10155000284698470028D9D1F0E700BF10C6000000
:1015600030B51049104889B000220AF09AFC0F4D9E
:101570000F4900220023CDE9062300240E23CDE9E4
:101580000334CDE901440B4B00944FF440722846DC
:1015900006F0CAF9084928460AF046FB204609B079
:1015A00030BD00BFBD150000800C0020F0070020FA
:1015B00000190020C118000063D00000014805F0A8
:1015C000BDBF00BFE00700202DE9F04780461F485F
:1015D0000F4609F03CFB0646002830D0002528467F
:1015E000BDE8F087237B6BB12368DB680BB1204635
:1015F000984723681B69D3B9636804221968204699
:1016000000F00CFA013610344C45EBD3B8F1000F62
:10161000E5D0002DE2D02846FFF770FF0546002FE9
:10162000F7D000214FF4A47006F02AFCF1E7204621
:1016300098470028E0D00AFA06F31D43E2E7044C7D
:10164000DFF8109005464FF0010ADDE7D00F0020CB
:1016500010C6000030C60000014B53F82000704750
:10166000FCC8000008B5034608462BB1044A1360C5
:1016700000F07EFC002008BD6FF01500FBE700BF06
:10168000D804002010B5044C237813B9034805F0A2
:1016900055FF0123237010BD96180020E00700209D
:1016A00010B504460B4809F0D2FA5CB1BFF35B8F6A
:1016B000094B53E8001F013943E80012002AF8D112
:1016C000BFF35B8F05480AF0F8FB0548BDE8104002
:1016D00005F034BFC80F0020CC0F0020800C002084
:1016E000E00700200020064BBFF35B8F014653E864
:1016F000000F43E80012002AF9D1BFF35B8F704757
:10170000C80F002070B5FFF7EDFF084C084E0546E6
:10171000B44200D370BD63685B792BB123685B680A
:1017200013B12946204698471034F1E710C600004F
:1017300030C6000010B5044C0449204608F008FCEF
:10174000034B1C6010BD00BFE8060020E8C8000085
:10175000C00F0020084A094808B500231370084A42
:101760001360084A4FF400411360FFF77BFFBDE8A8
:101770000840FFF7DFBF00BF971800204BAC000008
:10178000C80F0020CC0F0020014600220148002392
:1017900008F0FFBBE8060020014808F095BC00BF38
:1017A000E8060020024B0146186808F0E1BC00BFC3
:1017B000C00F0020014808F016BD00BFE806002059
:1017C00070B5284B187800284BD0FFF7E5FF054689
:1017D00090B1BFF35B8F244B53E8001F013943E8FE
:1017E0000012002AF8D1BFF35B8F204C204EB44288
:1017F0002DD32846FFF7D6FF1E4B1F4C1B68002B2E
:1018000019DD0AF04CFB4FF47A72A0FB020302FBD5
:101810000131C30BD4E9002043EA41439B1A4FEA4C
:10182000D13140F2E93261EB0001934271F10001E4
:1018300001D3FFF767FFD4E9003213F57A7342F161
:101840000002C4E90032BDE87040FFF7B3BF63682F
:101850005B7923B1236829461B68204698471034DA
:10186000C5E770BD96180020CC0F002010C6000000
:1018700030C60000C80F0020780C002070B50D4D58
:10188000297861B90120FFF79FFE0B4C0B4EB44243
:1018900006D3FFF795FF0028FBD101232B7070BD05
:1018A00063685B791BB1236820469B6898471034B6
:1018B000EDE700BF9718002010C6000030C60000FA
:1018C00000212DE9F0470846FFF77EFE044658B395
:1018D00040F267684FF000090AF0E6FC1B4B1C4A17
:1018E0001B58136033B11B4B1B68092B02DD1A48D0
:1018F00005F024FE194FDFF860A0002544B1204612
:10190000FFF7FCFD044618B94FF0FF384FF0FF39E0
:10191000FFF756FF064628B9B5B942464B46504632
:1019200005F030FE3546E9E74FF0FF384FF0FF395C
:10193000D2E72B689B691BB10022114628469847C5
:101940001035BD42F5D3E8E7054DFAE70800000081
:10195000C40F0020CC0F0020E007002030C600009C
:1019600010C6000013B5184809F071F9174B1B7821
:1019700073B1EFF31184202383F31288BFF36F8FC9
:10198000FFF71EFF84F31188BFF36F8F02B010BD05
:101990000F4B1B68002BF9D050B900220023CDE972
:1019A00000230C484FF40042002306F0EFFCEDE763
:1019B0000928EBD107480AF080FA074802B0BDE8D1
:1019C000104005F0BBBD00BFCC0F002097180020D1
:1019D000C40F0020800C0020E007002010B5064B4B
:1019E0001B68044698472146A060044808F04DFB58
:1019F000BDE81040FFF7B6BFD8040020E80600207D
:101A0000044A054B9B1AB1EBD30F34BF52F8310097
:101A10000020704780C5000010C60000084BC31AA4
:101A200010B41B1144680133237143689A714368F1
:101A30001960436801225A7110BCFFF723BE00BF32
:101A400010C600002DE9F04F8FB004AFC1F34A2853
:101A5000B8600D4691467B600C0DB8F1000F63D065
:101A6000002607F114034FF0040B4FF00A0AC7F8E1
:101A70000C80C7E907667E620193CDF808B0CDF807
:101A800000A007F11C03F96832464846FFF7DEF86C
:101A9000B0F5006F03461CD36C468AB0D9F8041029
:101AA00004AB2648C3E9050140F2FF71D9611A462B
:101AB0004FF400711984224B42F8103F21483346FD
:101AC0004FF41251FFF7BEFFA5462C37BD46BDE8C7
:101AD000F08FC0F30A0804F11700184420F0070043
:101AE00080083B60FFF750FE68F35325044690B131
:101AF0003B68154AC7E9083600F1100107F11403E5
:101B0000F961CDE900A3CDF808B0F96807F11C032D
:101B10004846FFF79BF868F353257B68B9682A4667
:101B2000204609F0CAF8D0E704F1170020F00700BA
:101B30008008FFF729FE0446EDE700BF78D00000DB
:101B400004000001B0C500008FAC00002DE9F04F8B
:101B500087B0DDE91279DDE9105A04460391934616
:101B60009846BFB1CDF800903B4652461021002068
:101B7000CDF81490FEF798FEB0F5006F06460AD334
:101B8000184A194840F2FF73022107B0BDE8F04F30
:101B900009F0ECB83E4605F11700304420F007008C
:101BA00004F007048008FFF7EFFD0BF0070BE400DB
:101BB00044EA8B1444EA462444EA0554054640B1FD
:101BC0003FB1CDF800903B46524631461030FEF70B
:101BD0006BFE039943462246284607B0BDE8F04F06
:101BE00009F06BB8B7D00000B0C50000406820B164
:101BF000034BC01A40F3CF0070474FF0FF307047DF
:101C000080C500000EB403B503AB014653F8042BA6
:101C10000448019301F08AF902B05DF804EB03B0C7
:101C2000704700BFCFAD0000CA0605D48B064CBF7D
:101C300002490349FFF7E6BF704700BFF0D000003C
:101C4000EFD000002DE9F04F89B09B46149B06931E
:101C50009DF84CA0159B0593169B179E0493044674
:101C60000D469046BAF1000F00F09D8006F4807397
:101C7000079309F00AF806F00209024600283ED050
:101C800091492046FFF7BEFF0746B9F1000F08D083
:101C900016F0440F35D18D492A462046FFF7B2FF92
:101CA000074406F0010353B1894B8A4953F82A20AF
:101CB000894B2046002A08BF1A46FFF7A3FF06F407
:101CC0008073002B49D006F00803002B63D1B8F1D4
:101CD000000F66D0814942462046FFF793FF054634
:101CE000069B3D44002B6DD1049B002B73D1F30761
:101CF00000F1E48031462046FFF796FFD8E0074622
:101D0000C3E7774B18680028CAD0764B4FF47A792E
:101D10001B68B5FBF3F54FF46161B5FBF0F300FB15
:101D2000135509FB05F54FF03C0CB3FBF1F201FB39
:101D30001231B5FBF0FEB1FBFCF300FB1E550CFBB2
:101D4000131109FB05F50091B5FBF0F56649CDE9E6
:101D500001E52046FFF756FFA2E706F00803EBB1C6
:101D6000624B634953F82A202046FFF74BFF054694
:101D7000B8F1000F05D0594942462046FFF742FF0F
:101D80000544BBF1000FABD05A495A462046FFF735
:101D900039FF0544A4E74FF0000BE1E706F0080522
:101DA000E6E745469CE7BBF1010F069B06D1002BF9
:101DB00064D1049B002B7BD000250CE0002BF8D0D5
:101DC0004D485CE04D48069B4D49224607F061FFB7
:101DD000049B002B68D0DFF82C81DFF82C91049F46
:101DE0003146102F204628BF1027FFF71DFF4FF068
:101DF000000B5D4545DC059B49461A782046FFF7F8
:101E000001FF4FF0010B1BF0070F03D141462046A5
:101E1000FFF7F8FE5F453BD9059B494613F80B20B9
:101E20002046FFF7EFFE0BF1010BBBF1100FEAD1DB
:101E3000364920464FF0000BFFF7E4FE5A46059B5B
:101E40009A5CA2F120015F2928BF2E22304920464A
:101E5000FFF7D8FE0BF1010BBBF1100F1DD01BF0EB
:101E6000070F03D141462046FFF7CCFE5F455A4697
:101E7000E5D841462046FFF7C5FEEBE71F4855462B
:101E8000A1E741462046FFF7BDFE0BF1010BB0E78D
:101E900020492046FFF7B6FEC5E7059B3B44059366
:101EA000049BDB1B04939AD1BAF1000F7FF41FAFA0
:101EB000204609B0BDE8F04F08F07CBF064A05494E
:101EC0002046FFF79FFE15E7F7D00000FBD000008B
:101ED0000CC900008EDB0000F2D0000020D1000011
:101EE000D80F0020D40F002004D1000020C900002A
:101EF00024D100002AD1000005AE0000CFAD0000C3
:101F00002D2F000037D100002FD1000039D1000063
:101F10003BD1000035D1000073B542F20F738B4204
:101F200028BF0B4605680F4A04460521684606F09F
:101F300071FC63680C495B6806460B22284608F072
:101F40002BFF63683246694628465B6808F024FF29
:101F5000636806495B681B22284608F01DFF02B033
:101F600070BD00BF11D300005AD100003ED1000067
:101F7000074A00210123904206D8064A01B90123ED
:101F80001360054B1860704740085B000121F2E7C1
:101F900040420F00D40F0020D80F0020014B012237
:101FA0001A70704798180020014B00201960704784
:101FB000F00F00200148FFF7AFBF00BF50C900007D
:101FC00010B5064B18680C46FFF746FB2146034642
:101FD000BDE8104002480F22184700BFF00F002054
:101FE00050C90000F8B5094D094B0A4ED5E9004724
:101FF00001221A700CB92C60F8BD214630463A46D1
:1020000000F01EF8241A0644F4E700BFE40F002095
:10201000991800209A18002010B9074B18707047C3
:10202000064B1B781BB141F2883009F019BDA42082
:10203000002105F025BF00BF981800209918002046
:102040002DE9F843DFF874901D4F80460E460424B6
:1020500099F8005095B904F0BDFF28463246414634
:1020600004F06AFF054604F0BFFFE5B101233B70B1
:1020700099F8003073B93046BDE8F88332464146DE
:10208000002004F059FF0546EFE72046FFF7C4FFA4
:10209000651E2C46002004F093FF0028EBD03B780F
:1020A000002BF2D1E7E73B78002BE4D0013C20463F
:1020B000FFF7B2FF3B78002BCAD1DCE7991800206C
:1020C00098180020F8B5074F0D4604464618B4424C
:1020D00001D12846F8BD14F8011BBB6801485B68B4
:1020E0009847F4E798C30000014B03600020704755
:1020F00094C9000008B5044807F023FEBDE8084075
:10210000024807F01EBE00BFB0D10000E5D10000BC
:10211000014806F0D7B900BF94C9000038B504469D
:1021200018B90F4B0F485B6898476168B1F5683F75
:1021300010D0B1F5680F0DD00B4DA9420AD011F4A3
:102140006861206807D00146084809F0E6FC0023D2
:102150002360656038BD142209F0D9FEF9E700BF9D
:102160007806002013D200002C5F5CA9181500200F
:1021700008B520B34368B3F5683F10D10122036866
:10218000BFF35B8F53E8001F002903D143E8002011
:102190000028F7D1BFF35B8F0DD1002008BD094A9D
:1021A00093420AD000684FF0FF324FF0FF3305F042
:1021B00011F90028F1D00448F0E70448EEE76FF485
:1021C000E040EBE72C5F5CA9E98FFFFFEA8FFFFFA0
:1021D00008B5D8B14368B3F5683F10D10022036851
:1021E000BFF35B8F53E8001F012903D143E80020B0
:1021F0000028F7D1BFF35B8F0BD1002008BD074A41
:10220000934208D0006805F05DF9F6E76FF4E0400E
:10221000F4E70348F2E70348F0E700BF2C5F5CA94E
:10222000E98FFFFFEA8FFFFF10B5044618B91D4B79
:102230001D485B6898476368B3F5683F2FD0B3F5D6
:10224000680F2CD0194A934219D1236803BB184850
:102250004FF0FF324FF0FF33214605F08DF808B9FB
:1022600023681BB90F4B13485B68984720681422FA
:10227000002109F04CFE4FF46863636008E0B3F599
:10228000683F0DD83A2B03D040F6BA629342DED1B4
:10229000206809F07BFC636843F03A03636010BD7B
:1022A000054AF3E77806002013D200002C5F5CA9F2
:1022B0001815002039D200003A00003A08B5064946
:1022C00006484023142209F01AFCBDE808400449DE
:1022D000044806F069B900BF181000201815002046
:1022E0009CC90000B0C900002DE9F047064600AFC8
:1022F0000C46002936D0E9468AB0D1E90012A3681D
:102300006D462148A8464FF0050AC5E90501C5E913
:10231000072348F810AF1D48424600234FF42151CF
:10232000FFF790FBCD46D4E903126369AD46184828
:10233000C5F810A0C5E90501C5E907231348002326
:1023400042464FF42151FFF77DFBCD46E369114A28
:102350000E48012108F00AFDA3690F4A0B4801212C
:1023600008F004FD012E07D1EFF305830B4A07485F
:10237000103B314608F0FAFC2146304604F04AFE94
:10238000BD46BDE8F08700BF66D20000D0C50000A2
:1023900095D20000C4D20000D3D2000001D30000C7
:1023A00030BFFFF7FDBF00BF2DE9F0410B4EDFF856
:1023B000308006EB0807CC1B05463246094920460B
:1023C00009F097FDA01942460021083C09F09FFD45
:1023D000AC6707F10800BDE8F08100BF0000000015
:1023E0000400000040C60000074A936893F90E10ED
:1023F000002907DB526993421FBF044A536843F028
:1024000080535360704700BF8416002000ED00E049
:1024100070B5294C06460D462848294908F07AFD32
:10242000A36AD9043CD52548264908F073FD172036
:10243000A36A1A0504D52148234908F06BFD18202A
:102440001D4CA36A9B0512D51C48204908F062FD6B
:10245000A36BA26A100409D51D4A1848012108F08F
:1024600085FC1EB1A36A23F40043A3621920124C19
:10247000A36A590504D51148164908F04BFD1A20E6
:10248000A36ADA050ED50D48134908F043FD1B2059
:10249000094A936A43F47F43936200232B7070BD13
:1024A0001620C5E7A36A9B04F2D504480B4908F03F
:1024B00031FD1C20ECE700BF00ED00E0D0C50000BE
:1024C00014D300002AD300003BD300004ED30000F9
:1024D00067D300007CD3000097D30000AFD3000087
:1024E00010B5204C2049214808F014FDA36A990139
:1024F00036D51E481E4908F00DFD1E20A36ADA01DC
:1025000004D51A481B4908F005FD1F20154CA36A85
:102510001B0304D51548184908F0FCFC2120A36AC8
:10252000590304D51148154908F0F4FC22200D4C3C
:10253000A36A9A0304D50D48114908F0EBFC232047
:10254000A36ADB0304D509480E4908F0E3FC242004
:10255000044A936A6FEA03436FEA1343936210BD20
:102560001D20CBE700ED00E0DED30000D0C5000069
:10257000F6D3000009D4000023D4000041D40000A9
:1025800066D4000080D400002DE9F843364D804623
:10259000894636483649174608F0BCFCAB6ADE0669
:1025A00027D53449314808F0B5FC1124AB6A1D0722
:1025B00004D531492D4808F0ADFC12242A4DAB6AF0
:1025C000980718D52D49294808F0A4FC6E6BAB6A12
:1025D000190646D52A4A25483346012108F0C6FB8C
:1025E000B9F1000F03D0AB6A23F08003AB62132470
:1025F00003E01024DAE76FF015061B4DAB6ADA072B
:1026000004D52049194808F085FC1424AB6A9B06C0
:1026100004D51D49154808F07DFC1524124B9A6A13
:10262000D50602D49A6A90070AD55B68190507D5C2
:102630004146304600F096FA10B180F30988022432
:10264000094B9A6A920642BF5A6A22F400525A62B1
:102650009A6A42F0FF029A6200233B702046BDE86E
:10266000F8836FF01506C2E700ED00E0D0C500006A
:10267000ABD40000C1D400003BD30000F4D4000070
:102680000CD5000022D50000AFD300002DE9F041A9
:10269000664B8AB0D3F8048000AF0446C8F308053F
:1026A000002686F31188BFF36F8F02F07F43B3F1EA
:1026B0007F4F07D102F00C03082B12D15C495D4813
:1026C00008F028FC002634460023FB71EB1E092B82
:1026D00000F28A80DFE803F00A80837D888888889A
:1026E000888610074CBF0C460126EDE75249514839
:1026F0004E4D08F00FFC0023FB71EB6A9A0705D5DD
:102700004E494C4808F006FC002333E0EB6A002BEE
:1027100001DA4B49F5E7EB6A5B00F5D549494548D5
:1027200008F0F8FB6B69A26943F480736B61BFF337
:102730004F8FBFF36F8F6B6932F8022C23F48073D5
:102740006B61BFF34F8FBFF36F8F4DF602739A42E9
:1027500009D0AB6ADBB27BB3FA1D01212046FFF73B
:1027600013FF034606E02368374A3248012108F088
:10277000FDFA2368FA79DAB907F1080504F1200CAB
:10278000206861682A4603C2083464451546F7D1BB
:102790007A6A002E44D0C2F3080121B96FEA5222AE
:1027A0006FEA42227A6207F108011846FFF79CFDA2
:1027B0002837BD46BDE8F081AB6A13F47F4F04D0E3
:1027C000F91D0120FFF724FECBE7AB6AB3F5803F8C
:1027D0009AD3FFF785FEC4E7FA1D0021BEE7F91D75
:1027E0000020EFE719498CE7194A1A4B18F4F87FD3
:1027F000E8468AB018BF13466A461749C2E905136E
:102800004FF400731384103D144BD56142F8103F10
:10281000084800234FF41151FFF714F9C54673E738
:1028200022F4FF7222F00102BCE700BF00ED00E0DD
:102830006FD50000D0C500009AD50000B1D50000CA
:10284000D2D50000E0D50000FFD500001BD6000067
:1028500056D5000041D500003FD60000040000011D
:10286000044B5A6942F010025A615A6922F0080278
:102870005A61704700ED00E0EFF30880EFF3098143
:1028800001B57246FFF702FF01BD00BF002080F3D3
:102890001488BFF36F8F03F0F3F900200D4908602F
:1028A000BFF34F8F0C4880F3088800F02BF82020EE
:1028B00080F3118809484FF40461401880F30988B7
:1028C000EFF314800221084380F31488BFF36F8F65
:1028D00000F010F994ED00E0403200208024002048
:1028E0000749D1F890200023C2F3072218469342EB
:1028F00000DB7047C1F89830C1F8A0000133F6E75B
:1029000000ED00E008B572B6002383F31388FFF7EB
:10291000E7FF144B4FF0FF32C3F88020C3F8842048
:10292000C3F88820C3F88C20C3F89020C3F8942003
:10293000C3F89820C3F89C20C3F88021C3F88421F1
:10294000C3F88821C3F88C21C3F89021C3F89421DF
:10295000C3F89821C3F89C2162B6BFF34F8FBFF331
:102960006F8F08BD00E100E0084B9B6883420BD1EC
:10297000EFF3058343B1064B5A6842F080525A6028
:102980005A6A22F400425A6209F02BBA84160020D7
:1029900000ED00E00A4A93686FF00A01C3F8801066
:1029A0000849D8674B6843F080534B60002383F39A
:1029B0001188BFF36F8F9368D3F88000704700BF12
:1029C0008416002000ED00E010B50446EFF31183FB
:1029D000202383F31288BFF36F8F0A4B58699860E6
:1029E000094B4FF000625A60084B826F1A60002258
:1029F000C36FC26783F31188BFF36F8F00F01AF9BA
:102A0000204610BD8416002000ED00E034150020A3
:102A10000B498A684FF038001044EFF3098C80E8C6
:102A2000F01F74467046FFF7CFFFA64604498A6838
:102A300002F1380090E8F01F8CF30988704700001D
:102A4000841600201EF0040F0CBFEFF30880EFF394
:102A50000980816911F8021C0229FFD001B508F034
:102A60004EFA01BD40B2002807DB044A41090123A8
:102A700000F01F00834042F82130704700E100E081
:102A800040B200280CDB4309064900F01F00203348
:102A90000122824041F82320BFF34F8FBFF36F8F95
:102AA000704700BF00E100E0054B420900F01F0045
:102AB00053F82220012303FA00F01040704700BFB2
:102AC00000E100E040B20028A8BF00F1604001F141
:102AD0000101B8BF064B4FEA4111ACBF00F56140A0
:102AE00000F00F00C9B2B4BF195480F8001370474A
:102AF00014ED00E00B4A08B50B4B22F07F029A6000
:102B0000BFF34F8FBFF36F8FD3F8882022F470028A
:102B1000C3F8882004F06AFB05F06EFA00F060F854
:102B200004F0A8FB0000000000ED00E042F8203CAB
:102B3000009B42F81C3C0A49019B42F8183C029B4E
:102B400042F8143C21F001014FF0807342F8043C3C
:102B500042F8081C0023203A8265C367704700BF13
:102B600019100000094A0346906870B113F1160F5E
:102B7000806E05D0A0F140029A4205D8834203D26C
:102B8000814228BF00207047002070478416002033
:102B900008B515460B4A0C4B9060826F1A600E46C2
:102BA00000F048F82C4686F309884FF00000074BE8
:102BB000984720464FF000014FF000024FF000030D
:102BC000034C2047841600203415002025AF000058
:102BD00019100000014B10221A61704700ED00E04F
:102BE000044800232021C2180133302B82F800133F
:102BF000F9D1704700E100E008B5EFF30583064A1C
:102C0000103B02EBC30152F8330049688847BDE826
:102C10000840FFF7E9BB00BFE8C30000024B034ACE
:102C20000348012100F08AB80000042000000020C1
:102C3000C0C90000826E054B403A1A60044A402128
:102C4000C3E901121846012100F082B838150020AE
:102C500000000B1508B503461048D0F89020C2F3C9
:102C60000722013A934207D90D480E4A012108F084
:102C70007DF86FF0150008BDC0F898300A6822F0A2
:102C80001F021A4342F01002C0F89C208A6842F0EA
:102C90000102C0F8A0201846EDE700BF00ED00E0FB
:102CA000C8C5000056D60000F0B50E4685B01F46D8
:102CB00004460025B5420DDA606810B397B1431E93
:102CC00018420AD0104A11482B46012108F04EF84C
:102CD0006FF01502104605B0F0BD1F28F2D921682B
:102CE0000B42EFD12368019308F03FF9A36801A9D3
:102CF0000343D0B20393FFF7ADFF10F1160FE7D0F7
:102D0000421C01350C34D5E77CD60000C8C5000054
:102D1000044B0522C3F89420BFF34F8FBFF36F8F8E
:102D2000704700BF00ED00E0BFF35F8F024B002251
:102D3000C3F89420704700BF00ED00E010B5034CCD
:102D400001232278FFF7B0FF207010BDAB180020E0
:102D500008B50B4A00231278FFF7A6FF10F1160FF3
:102D600007D0084A0021D2F89030C3F307239842D5
:102D700000DB08BDC2F89800C2F8A0100130F2E7ED
:102D8000AB18002000ED00E02DE9F043574858490A
:102D9000D0F890300D68C3F307239D4285B000F250
:102DA000A180FFF7C1FF49680022954201F10C01A3
:102DB0001AD1504C504F25706846FFF795F9DFF84F
:102DC0003C81DFF83C9106460025AE421FD12378B6
:102DD00046490020D1F89020C2F3072293427BDBC2
:102DE000FFF796FF00204CE0C0F8982051F80C3C0B
:102DF00023F01F03134343F01003C0F89C3051F835
:102E0000043C43F00103C0F8A0300132CDE7009844
:102E100000EB05114FEA051CCB683B40B3F5000FF2
:102E200044D00AD8B3F5001F2ED0B3F5800F34D0AC
:102E3000B3F5801F10D00135C7E7B3F1807F3ED0D6
:102E4000B3F1007FF7D150F80C3088684A6808F079
:102E50008CF840F4802009E050F80C3088684A680B
:102E600008F083F840F0885040F43020039001A926
:102E70002078CDE90123FFF7EDFE002828DA6FF076
:102E8000150005B0BDE8F08350F80C3088684A683A
:102E900008F06BF840EA0800E8E750F80C30886862
:102EA0004A6808F062F840EA0900DFE750F80C30A1
:102EB00088684A6808F059F840F08270D6E750F800
:102EC0000C3088684A6808F050F840F08870CDE708
:102ED000237801332370AEE7C1F89830C1F8A00021
:102EE000013377E74FF0FF30CBE700BF00ED00E0A4
:102EF000CCC90000AB1800200000F0FF0000081152
:102F00000000020708B5024B1B689847002008BD67
:102F100044150020034B044A1860937843F00203E1
:102F2000937070474415002004050020F0B587B069
:102F300007460E4614460021102268461D4608F03A
:102F4000E6FF02238DF802302A46054B0193214605
:102F50006846CDE9047605F025FD07B0F0BD00BF59
:102F60008BAF000008B50649064821F00701C1F102
:102F7000005202F5802206F0FEFD002008BD00BFD1
:102F8000A737002048150020024B0122C3F8402536
:102F90000020704700E0014020B1034B800143F066
:102FA00001031847704700BF50C600002DE9F04FDD
:102FB0004788456A87B007F01003019305F10C03B9
:102FC00006468946039207F0080782460493DAF81A
:102FD0000C3002933378BAF80280012B40F08380E2
:102FE000748814F004040FD0736AD96973698C680B
:102FF0000A791C1B694B144103EA04243369D3404A
:1030000044EA035444F00104DAF820300093019BB1
:10301000002B74D09AF80030012B40F0AB8018F0F0
:10302000040F00F0A780002F5FD1CAE904770022C7
:103030000AF11C03CAF81C20EFF31182202181F34E
:103040001288BFF36F8F296A2B620B6082F311889D
:10305000BFF36F8F284607F0EFFF18F0200B67D102
:10306000D5F818A0504607F09BFF0590002800F007
:1030700084801022594608F04AFFBAF80E20059BBA
:10308000013AAAF80E20029AC3F80490C3E9022478
:10309000C3F800B0EFF31182202181F31288BFF34F
:1030A0006F8FE96AEB620B6082F31188BFF36F8F59
:1030B0000499BFF35B8F51E8003F013341E80032D0
:1030C000002AF8D1BFF35B8F6B682BB1013B6B60BB
:1030D00013B9286804F032FAA86804F02FFA27E040
:1030E000DDF800A073E700248EE7DAE90431002D53
:1030F0003AD000293BD0E86958BBCAE90400002156
:103100006B69CAF81C100AF11C02EFF31181202030
:1031100080F31288BFF36F8F18681A60026081F322
:103120001188BFF36F8FDA890132DA81002F94D0D2
:10313000039B002B08BF6FF08B0918F0020FCFD153
:1031400018F0010F27D0009807B0BDE8F04F07F046
:1031500050BF13B9CAE90433D1E7027923FA02F266
:1031600006F07BFD0023F5E7CAE90455C7E7CAE985
:103170000411C4E7002FC2D159E705F11003BFF3D2
:103180005B8F53E8001F013143E80012002AF8D199
:10319000BFF35B8F8CE707B0BDE8F08F00FF0F0037
:1031A000F0B5234B234C282500262027A34222D309
:1031B000214B224C00252026A34236D30020F0BD0F
:1031C000196905FB021101F11C00CE61EFF31181B9
:1031D00087F31288BFF36F8FD3F800C01860CCF864
:1031E000000081F31188BFF36F8F013299899142FA
:1031F000E6DC1433DAE70022F8E71869170100EB80
:103200000211C551EFF3118086F31288BFF36F8F5F
:103210001F681960396080F31188BFF36F8F013226
:1032200099899142E9DC1433C6E70022F8E700BF30
:10323000F0070020F0070020F0070020F007002032
:1032400010B50446D0E90C03984721460248BDE872
:10325000104008F062BC00BF6007002007B50023E3
:103260000948002201A904F087F858B9019B986227
:103270000122114603F1100008F08FFC019803B001
:103280005DF804FB0020FAE7600700200B460146CA
:10329000B8B103B112B90B4808F03FBCC0E90C3219
:1032A000094A8260002242605B7843B1FF2B4FF0F5
:1032B000FF3318BF002305480B60FDF79BBF0123B8
:1032C000F9E77047600700204132000054150020E4
:1032D000084B70B5C31A0D4607499B100446594365
:1032E0000648402207F0EAFE2B4601462046BDE88C
:1032F0007040184788150020B76DDBB65CC300002E
:1033000073B50C4C0C4A4023041B00930D460B462E
:103310000A49A41061430646094807F0FAFE011E57
:1033200005DA30462B4602B0BDE87040184702B0BF
:1033300070BD00BF881500207BB10000B76DDBB603
:103340005CC30000002270B5012104461046FFF75F
:10335000B9FB114802F0EAFD104B984218D12069E0
:1033600000F0CCF902F0F4FD26690D49304607F073
:10337000ADFB00280BDB012535642469084904F105
:103380001C0007F0A3FB002801DBE564002070BDF2
:103390006FF00400FBE700BF593400000000AD0BE4
:1033A000ECC900001FB500220123CDE90223094A20
:1033B000CDF800D06B46CDF804D007F0D7FE00283A
:1033C00005DB4FF480420023684604F0DBF805B0CB
:1033D0005DF804FB93B1000010B5EFF311842023D6
:1033E00083F31288BFF36F8F074A136823F002013B
:1033F000DB07116002D4012008F028FA84F3118859
:10340000BFF36F8F10BD00BFD815002030B4104B34
:103410000C2202FB003301460020D3E90E529863D0
:10342000EFF31180202484F31288BFF36F8F1C6C9C
:1034300004F0C00444F002041C6480F31188BFF35C
:103440006F8F1DB12B46034830BC184730BC704706
:10345000881500205CC30000012810B504460AD07E
:1034600004280CD078B9084B1B6C5B070BD1BDE866
:103470001040FFF7CBBF00F04FF92046F7E7BDE85B
:10348000104000F057B910BD8815002010B4EFF3BC
:103490001182202383F31288BFF36F8F17480168CE
:1034A00041F002040460C80707D482F31188BFF317
:1034B0006F8F012010BC02F05DBD4FF08041D1F84C
:1034C0000C04D1F80C14C907EFD5EFF3118083F386
:1034D0001288BFF36F8F0A490B6C03F0C00343F0EF
:1034E00002030B6480F31188BFF36F8F82F311889E
:1034F000BFF36F8F002010BCFFF788BFD8150020E6
:1035000088150020024AC3B21C2003FB002070472C
:1035100088150020F8B52849BFF35B8F06460122C5
:1035200051E8003F41E800200028F9D1BFF35B8F4C
:1035300033B9224922484B60CB608A6007F0D9FA40
:10354000731E012B1DD808F069FB0446D0B91D4B32
:103550001B78BBB14FF080430222C3F80823054615
:103560004FF08047D7F81824D7F81834D20312D573
:103570009B0701D0012E0ED1BCB185F31188BFF39A
:103580006F8FF8BDEFF31185202383F31288BFF30B
:103590006F8F0124E4E71CB1284607F0D7FCE1E770
:1035A0000021212004F06CFCDCE74FF08043022274
:1035B000C3F80423E5E700BF84150020741500203C
:1035C000A4150020BF1800200D4BBFF35B8F012214
:1035D00053E8001F002903D143E800200028F7D159
:1035E000BFF35B8F0AD107490023CB60064B4B60CA
:1035F00003238B60054B186807F07BBA704700BF48
:10360000F8150020E0150020D1360000DC15002060
:1036100007B500220023CDE9002308484FF400320B
:10362000002304F0B3FE064B186807F0B9FA054B07
:1036300000221A6003B05DF804FB00BF28070020D9
:10364000DC150020F8150020F7B51C4E1C4CB7689F
:103650001C4DFB683C213046984740B10023237045
:103660002B8002F0D9FC0123237003B0F0BD0C21A4
:103670003B696A46304698470028EFD1124A019BC1
:1036800093FBF2F3009A217803EB82031BB2B5F9A6
:1036900000200029E4D09A1A002AB8BF524212B280
:1036A000012ADDDC094A13680139013321701360F6
:1036B00003B0BDE8F040FFF7ABBF00BFC0C30000E0
:1036C000AC1800209418002090D00300F0150020C2
:1036D00008B5074808F0C9F928B902F09DFC054B68
:1036E00001221A7008BDBDE80840034804F08AB8FA
:1036F000C0C30000AC18002014050020034B044A8E
:10370000186000231360034A13607047DC15002023
:10371000F4150020F0150020024B00221A70FFF76C
:1037200053BF00BFAC180020014808F0C6BB00BF63
:1037300028070020024A136801331360FFF768BFAF
:10374000F415002008B5074808F08FF938B106488D
:10375000FFF7E0FB0448FDF759FC002008BD6FF0BF
:103760001200FBE798C300006D3700000A2838B547
:10377000074D044604D1AB680D215B682846984785
:10378000AB6803485B68E1B29847204638BD00BF8C
:1037900098C30000F0B54068057B01F01F0444EABF
:1037A0004514056987B0002D64D0B2F5001F00F103
:1037B000100506D12146284608F0D9F8002007B0A8
:1037C000F0BD01AE0027B2F5800F0197776039D1C7
:1037D000B3F1007F14BF052304238DF804300023C8
:1037E000CDE904630393836823FA01F111F0010129
:1037F0001AD1B2F1A07F17D104F01F03620903F5BB
:10380000E0732AD0012A3BD11F4A52F82330DB074C
:103810000AD40DF1030632462146284602F0CEFEB8
:103820001A4B98421CD0029603AA2146284602F061
:1038300087FD174B984220D101222146284602F0ED
:1038400021FFBBE7B3F1C06F05D0B3F1007F14BF18
:1038500001230223C1E70323BFE74FF0A042D4E7CF
:103860003146284602F008FF094B9842DBD06FF042
:103870000B00A4E76FF08500A1E76FF015009EE74D
:1038800051F82330FFDE00BF000300500400AD0BF1
:103890000000AD0B38B545682B69B3B1103528462B
:1038A00002F0DAFE044680B90146284602F0A0FE86
:1038B000084B98420BD108492246284602F078FE70
:1038C000224605210620FFF7FDF8002038BD6FF0E5
:1038D0000400FBE70000AD0BDD380000420970B5C5
:1038E000034602D0012A17D070BD0D4E32695168CF
:1038F0000029F9D003F01F0301250C689D40002921
:10390000F2D08A682A4002D04B68304698472CB1E2
:10391000236821461C46F2E7024EE7E72346F8E714
:1039200084C3000070C300002DE9F043466840F2F4
:103930000635D006337B87B002EA050554BFC2F3D3
:103940004010032001F01F07B5F5837F144647EAB6
:1039500043178DF8030045D00FD8062D18D007D88F
:10396000B5B1022D40D06FF0150007B0BDE8F0836F
:10397000B5F5807FF7D101250AE040F20222954299
:1039800034D0B5F5407F33D0B5F5007FEBD10225BB
:103990000123220303FA01F12CD57368C3F808153B
:1039A000326982BB07F01F037F0929D0012F77D12D
:1039B0003E4A02EB830284F48033D2F80017C3F34B
:1039C0000043C4F3404444EA430421F4E16144EA7F
:1039D000800421F0070144EA05230B43C2F80037B5
:1039E0000020C2E70725D3E70425D1E70525CFE767
:1039F0000325CDE7630344BF7368C3F80C15CFE715
:103A00004FF0A042D5E710360DF10202394630469C
:103A100002F0D4FD14F4403F80460CD139463046C4
:103A200007F0A3FF224B9845DAD19DF802103046EB
:103A300002F01CFED4E701AB4FF0000903AA39469F
:103A40003046CDE90439CDE90199CDF80C9002F06A
:103A500077FC174B984286D114F4003315D09DF8AB
:103A600003308DF80E3084F48034C4F300444B46A8
:103A700003AA394630468DF80C508DF80D4002F0FF
:103A800019FD0B4B9842CDD06DE7CDE9043303AA65
:103A90000DF1030339463046039302F051FCF0E781
:103AA00003F5E07352F82330FFDE00BF000300503F
:103AB0000000AD0B036803F01F025B09026004D035
:103AC000012B034818BF002070474FF0A0407047FB
:103AD000000300502DE9F04F444FDFF8148185B00A
:103AE0009146824600EB810140F2FF16514503D119
:103AF000002005B0BDE8F08FDAF800305804C3F3B9
:103B0000C322C3F308046AD41B0EBD5CB44208BFD1
:103B10004FF0FF34062B65D8DFE803F0040B135297
:103B2000164B5200C9F80C45601C4CD10AF1040A2E
:103B3000DCE7C9F81445631CF8D04FF0000B5A4677
:103B400012E0C9F80845EFE7621CC9F80845EDD056
:103B50004FF0000B03A80394FFF7ACFF039B012277
:103B600002FA03F3C0F80C35DAF80030019303F4DD
:103B70000040002818BF002203A8009218BF4FF091
:103B8000010B0394FFF796FF039C019B009A00EB47
:103B90008400C3F3412CD0F800472B0243EA8C0386
:103BA000134304EA0804234343EA4B03C0F80037F5
:103BB000BCE7631CC9F80C45B8D04FF0010BC9E74E
:103BC000C9F81045B7E703A80394FFF773FF039BF9
:103BD0004FF0010B0BFA03F3C0F80835AFE76FF0B5
:103BE000150086E76FF0850083E700BF05D700006A
:103BF000F0F8FCFF014B01221A60704700C0004042
:103C00000C2903690BD15B6A064907484B4393FBB8
:103C1000F0F100FB113311605360002070476FF02A
:103C20008500704790D0030040420F00044B0069AC
:103C30000022C3F80021D3F8003103F07FBC00BF9D
:103C400000C000407FB50569AB6A63B33C2901D071
:103C50000C292BD105F110064FF0FF324FF0FF3346
:103C6000304603F0B7FB134B0193A86A03230024EB
:103C700069460394029306F03CFF4FF0FF324FF089
:103C8000FF33284603F07EFCA86A06F089FF0A4B42
:103C9000D3F808256A6201225A60304603F012FC0C
:103CA000204604B070BD6FF00A00FAE76FF085009F
:103CB000F7E700BFF53B000000C0004010B5046905
:103CC0000020FFF71FFCA0624FF0FF3200212046CA
:103CD00007F063FF04F1100007F058FF00220121F4
:103CE0000C20FEF7EFFE0C20FEF7BCFE024B01227B
:103CF000C3F80423002010BD00C0004008B5072908
:103D0000006911D8032914D9002A74D141790139E5
:103D10000E2921D8DFE801F05154575A5D2263651E
:103D200067696B20202060003C2900F08E804A49A2
:103D30003DE012BB817801390E290DD8DFE801F092
:103D40003D084346490E4F515355571115194C0024
:103D50004FF4C86119605A60002008BD4FF47A71B1
:103D6000F8E706221A603D4AF5E703221A603C4A4A
:103D7000F1E701221A603B4AEDE7072A16D14278A3
:103D8000032AE9D8DFE802F002060A0E9C221A6034
:103D9000354AE0E74E221A60344ADCE727221A60EF
:103DA000334AD8E713221A60324AD4E732493348FB
:103DB00007F08CFA6FF01500CFE74FF4FA41C9E72E
:103DC0004FF47A51C6E74FF4FA51C3E74FF47A61E2
:103DD000C0E74FF4FA61BDE74FF4FA71BAE7C821C2
:103DE000B8E76421B6E73221B4E71921B2E70C2223
:103DF0001A60234AAFE7072AD8D1017900220729A0
:103E0000AAD8DFE801F004080C1014181C1F2222A5
:103E10001A601C4A9FE711221A601B4A9BE708227E
:103E20001A601A4A97E704221A60194A93E7022295
:103E30001A60184A8FE701221A60174A8BE71A6046
:103E4000164A88E71A60164A85E70F2AAED18268BB
:103E50001A6000227FE700BF3BD7000090D003002C
:103E600048E8010044950800A0D40D0050EA06007F
:103E700028750300B45B090025D7000080C5000049
:103E800020A1070051D50D00A8EA060074160B000A
:103E90003A8B05009DC50200CE62010087520800E2
:103EA00043290400072A98BF1C4B2DE9F0411C4D03
:103EB00098BF33F912401B4B88BF00244FEAE172D0
:103EC000A1FB058194BFE717274605FB0215A4FB5C
:103ED0000321064603FB071340462946FCF710F969
:103EE00004FB01F23060A4FB003107FB00220E4806
:103EF0000A44594200FB0211A3FB0030014413EBBA
:103F000008004FF0B403A4FB032403FB074345EB75
:103F10000101FCF7F5F87060BDE8F08180CD00008C
:103F2000705EDF010095BA0A006B45F52DE9F0419E
:103F30001C4C0646032A4FEAE170A1FB048104FBF6
:103F4000001426D8184B33F91250184BEF17A5FB65
:103F5000032103FB071340462146FCF7D1F805FB7C
:103F600001F23060A5FB003107FB002210480A4433
:103F7000594200FB0211A3FB0030014413EB08007F
:103F80002A463B4644EB0101FCF7BAF87060BDE8F5
:103F9000F0810022002340462146FCF7B1F8306052
:103FA000FFDE00BF3AA3950090CD000040420F0015
:103FB000C0BDF0FF70B5446806690546206807F08B
:103FC00054FD38B91549164807F080F96FF012040E
:103FD000204670BDE06818B107F047FD0028F1D019
:103FE000284600F099F830B10E490D4807F06EF9F7
:103FF0006FF00404ECE7284600F030FF044620B1DF
:104000000949074807F062F9E2E73146284600F01F
:10401000CFF804460028DBD00449F2E74FD7000070
:1040200080C5000064D7000080D700009ED7000044
:1040300070B50D4616461C460C2866D8DFE800F021
:104040001D2226073F44482A656565654C00527865
:10405000B1F902102046FFF769FF7278B5F9041034
:1040600004F10800FFF762FF7278B5F9061004F159
:104070001000FFF75BFF002070BD5278B1F902100D
:104080002046F6E75278B1F90410F9E75278B1F911
:104090000610F5E71279B1F908102046FFF702FF84
:1040A0003279B5F90A1004F10800FFF7FBFE327906
:1040B000B5F90C1004F11000FFF7F4FEDBE71279FC
:1040C000B1F908102046F7E71279B1F90A10F9E7BB
:1040D0001279B1F90C10F5E708880D4B0D4D6422EB
:1040E00010FB0230C1174FF44F520023FCF708F8C1
:1040F0001E462060A2FB050100234FF44F5205FB32
:104100000611FBF7FDFF6060B5E76FF08500B3E7D0
:10411000C00D050040420F0030B5456885B0032052
:1041200007F0E4F801221121284607F04AF9044675
:1041300038B11B4A1B48012107F0D6F8204605B0CC
:1041400030BD022007F0D2F801230DF10F022D211E
:10415000284607F033F904460028EFD19DF80F30C8
:10416000DA0607D4104A0F48012106F0FFFD6FF070
:104170001504E3E701230DF10F027521284607F02E
:104180001DF904460028D9D19DF80F30472BD5D012
:10419000472200920348054A012106F0F1FDE6E7B7
:1041A000C6D7000090C50000E9D7000009D800007C
:1041B0002DE9F3414468066905460F460022652152
:1041C000204607F0FEF8F379C3B1002216212046FD
:1041D00007F0F7F850B19D4A9D48012107F084F897
:1041E0006FF01505284602B0BDE8F08102224B2190
:1041F000204607F0E6F808B1964AEDE7FA78BB7971
:10420000920002F00C0242EA43123B7803F00303EF
:104210001A4302F0EF024E21204607F0D2F808B10F
:104220008D4AD9E7FA2007F01BFCBA787B7802F0B8
:104230000F0242EA431202F0EF025021204607F03B
:10424000C0F808B1854AC7E77A793B7902F00F02D6
:1042500042EA431202F0EF024F21204607F0B1F884
:10426000064608B17E4AB7E7322007F03FF83246EB
:104270001621204607F0A5F802460028ABD162219E
:10428000204607F09EF808B1764AA5E701230DF114
:1042900007025421204607F091F808B1724A9BE7C3
:1042A0009DF80720542102F0FD02204607F089F80E
:1042B00008B16E4A90E72846394607F025F90546C9
:1042C00028B16B4A6248012107F00EF88AE7BB78F3
:1042D000042B0CD97B79042B8CBF00226022642133
:1042E000204607F06EF8054618B1624AEAE76022F8
:1042F000F5E7FB79002B00F047815F4A5448032122
:1043000006F0F2FF0F225F21204607F05AF808B1AD
:104310005A4A61E73A7B3B7897F80380BE68F2B966
:10432000B3B1B8F1000F10D0002E3AD01025BB78F1
:10433000013B0E2B25D8DFE803F07517783E41448A
:104340004A4D5053565A5E62470056B30825EEE771
:104350003EB30825B8F1000F56D1464621E006B31A
:104360001425002BF6D0E2E74FF4C86CDFF810E11B
:10437000C1174FF47A720023CCFB0E01FBF7C0FE8D
:104380003FE0B8F1000F3FD1404601463D4BC01819
:104390004FF0FA724FF0000341F10001FBF7B0FE5D
:1043A00086B2F2B26021204607F00BF8002800F038
:1043B000D680354A10E74FF47A6CD7E74FF4FA6CA1
:1043C000D4E74FF47A7CD1E74FF4FA7CCEE74FF094
:1043D000C80CCBE74FF0640CC8E74FF0320CC5E7D0
:1043E0004FF0190CC2E729484FF00C0CBEE72848E3
:1043F0004FF0060CBAE727484FF0030CB6E740F23F
:104400001A60B8F1000F77D07B79013B0E2B70D882
:10441000DFE803F00E44484C50545C6063676B6FF8
:104420006F6F58004FF4FA4CA0E74FF4FA5C9DE729
:10443000002863D018490B4602469A4240F08B8010
:10444000D31780FB0101FBF75BFE59E038D8000071
:1044500090C5000052D8000066D800007ED8000049
:104460009AD80000B5D80000D0D80000EAD80000E3
:1044700004D9000020D900003DD900004AD900002D
:1044800040420F00FFFFF30165D9000020A10700A3
:1044900090D0030048E801000048E801002841D01E
:1044A0003D49C8E700283FD03C49C4E700283DD03B
:1044B0003B49C0E700283BD03A49BCE7002839D047
:1044C0003949B8E7002837D03849B4E7002835D053
:1044D0003749B0E7A0B33749ADE798B34CF2503154
:1044E000A9E790B346F2A811A5E788B343F2D40137
:1044F000A1E700283FF449AFC11701E02E48002191
:1045000086FB05562D4B694300FB0616A5FB0001F3
:10451000834231444FF00F038B41BFF637AF40F277
:10452000FF763EE71C48EAE71C48E8E71C48E6E758
:104530001C48E4E71C48E2E71C48E0E71C48DEE7CB
:104540001C48DCE74CF25030D9E746F2A810D6E719
:1045500043F2D400D3E7CCBFD21A9B1A6DE7C6F35F
:1045600003226121204606F02CFF08B1144A33E6ED
:1045700040221621204606F024FF0622652120460F
:1045800006F01FFF05462DE60E4A0F48032106F0F0
:10459000ABFE0822F2E700BF0024F40000127A000C
:1045A00000093D0080841E0040420F0020A107004A
:1045B000400D0300A08601000048E8010000189C9F
:1045C00080D900009BD9000090C500002DE9F74379
:1045D00083685B681A791E680446002A6DD10578E5
:1045E000012DD3E902784DD143885A074AD5426953
:1045F000436A92B30369172B4AD90192019D394648
:104600002B464246304600F0A7FB706801230DF1AF
:1046100003022D2106F0D2FE0746002846D19DF860
:1046200003301B0740D505F10A01304606F082FE33
:10463000074600283AD12B4605F10E01987ADA7A1E
:1046400042EA00225A8102338B42F7D100212046F0
:1046500006F028FD03B0BDE8F083CBB1D869B8B14E
:1046600090F8049005FA09F5173525FA09F501AA1D
:10467000294605F0D8FA58B9019B636105FA09F596
:104680002561BBE72369172B02D963690193B5E75D
:1046900001210D4A0D48182306F068FB6FF00B014D
:1046A000204606F0A3FCD5E76FF00F070121084A6A
:1046B000064806F052FB3946F2E76FF0850103B079
:1046C000BDE8F04306F092BCB5D9000098C50000E3
:1046D000E2D9000010B50C46FEF7C0FD2146024AA3
:1046E000BDE81040FEF7D2BDCD450000F8B55D0035
:1046F00090F800C06F1C61B3032A35DC264C0026FD
:10470000C25D07441CF0100F7D7845EA02252DB2EA
:104710002DD01844002914BFF0210F21437CC1F192
:10472000000202EA010203EA0103B3FBF2F343EAE7
:10473000051549F6E84406BF4FF4002283244FF4E0
:10474000802215F5002F4FF0000615D16FF03C00C8
:1047500020E0124C34F912401CF0400F4FEAE4768E
:10476000CED005F10807CBE700242646C8E70C4B5E
:104770009D42EBDB4FF40042EB1705FB06F104FB17
:104780000311A5FB040400232144FBF7B9FC069B9D
:1047900018600020F8BD00BFEA04744E98CD0000F8
:1047A0000280FFFF2DE9F34790F8019090F8048014
:1047B0000F4614461E4642460DF107034946384649
:1047C00006F002FE0546B0BB072F30D8032F36D9BE
:1047D000B8F1070F9CBF584B33F91880574B84FB37
:1047E000034A574B8ABF80464FEAE8798146A8FBC7
:1047F000032103FB091320465146FBF781FC08FB0C
:1048000001F1074609FB0011A8FB070319444D4BB2
:10481000424203FB0121A0FB03031944B423001906
:10482000A8FB032803FB098341EB0A0130E00C2FAE
:104830005DD06FF08505284602B0BDE8F087B9F17C
:10484000030F77D8404B33F91980404B84FB03A406
:104850003F4B4FEAE879A8FB032103FB09135046BD
:104860002146FBF74DFC08FB01F309FB003307462B
:10487000A8FB00021344374A414202FB0311A0FB8C
:104880000202114410EB0A0042464B4641EB040180
:10489000FBF736FC2E4BC117C7FB030104469DF9FD
:1048A000070000283CDA4042012282405143D317DE
:1048B00004FB0313A2FB04742344D907244A0023F6
:1048C000F80741EA5701FBF71BFC0446B4F1004F1F
:1048D00071F10003A4BF6FF000440021B4F1004F58
:1048E00071F1FF31B8BF4FF000443460A3E7642397
:1048F00019485C4320184FEAE4714FF44F524FF0CF
:10490000000341F10001FBF7FBFB114C9C460746FD
:10491000A2FB040100234FF44F5204FB0C11B7E734
:10492000D4D001228240C90782FB0323E00741EA79
:104930005401C8E7FFDE00BFA8CD0000705EDF01B4
:104940000095BA0A006B45F5B8CD00003AA3950072
:1049500040420F00C0BDF0FFC00D05002DE9F04F33
:10496000077AD2F800908FB017F00107189D0991CF
:104970000446049207931FFA81F84FEA114600F0AB
:104980004E81027BC37A02F0070243EA02230D3311
:10499000C3184B45059340F24081002E40F03D8105
:1049A000436802680396C5E90023A8F104039BB29B
:1049B00000F10D07B3460893079B9E4202DA059B60
:1049C000BB4203D830460FB0BDE8F08F397801F014
:1049D000400201F02003C90606D507F11401029137
:1049E000002A5BD17BB107E0002A53D00BF1010B09
:1049F00033B107F11001029103990131039102E0F3
:104A000007F108010291049909688F4240D3B8F177
:104A10000C0F63D109232B74A37A002A41D0BF491C
:104A20001A090BF1FF3351F8222005EBC609534355
:104A3000C9F814303B78DA0639D5B7F80D0040BA1A
:104A4000642380B2584300F5A1204FF44F52002355
:104A500000F5B8600021FBF753FBB14907469C46BF
:104A6000A2FB010E4FF44F52002301FB0CE1FBF7B8
:104A700047FBAC49AA4A002380FB0101FBF790FBEE
:104A800040EA8750C9F81800049B029A1A60013660
:104A9000029F91E707F108010291A3E70BF1010BD7
:104AA000A0E703F00F02039B9F49013BBBE703F024
:104AB0006003602B0CBF797BF97941F237406427A2
:104AC00007FB0100CF2200230021FBF719FB9449CB
:104AD00007469C46A2FB010ECF22C5E7B8F1030FA3
:104AE0004BD8002AD0D0A37A217A8C4A1B09032004
:104AF00052F823A0C1F3420205F11003C1F30111E2
:104B000006F062FC0BF1FF330693731C4FEA0319A6
:104B10000BF1FF3205EB03130AFB02F25A60227A13
:104B200009F108032B440093C2F301120023012171
:104B30003846FFF7DBFD09F10C03227A2B44009382
:104B4000012319468246C2F301123846FFF7CEFD13
:104B500009F11009227A05EB09034AEA000A0093D9
:104B6000C2F30112022301213846FFF7BFFD5AEAC2
:104B7000000089D0DDF818B08AE7089A032A83D8A4
:104B8000002B81D0A37A217A644A03F00F03072017
:104B900052F823A0C1F3420205F11003C1F3011141
:104BA00006F012FC039B013B0693069A731C4FEA26
:104BB000031905EB03130AFB02F25A6009F108031B
:104BC000227A2B44009300231946C2F3420238464E
:104BD000FFF78CFD227A09F10C032B4482460093E7
:104BE000C2F34202012300213846FFF77FFD09F19D
:104BF0001009227A05EB09034AEA000A0093C2F37E
:104C00004202022300213846FFF770FD5AEA0000F5
:104C10003FF43AAF069B03933AE70026D2E6102210
:104C200039460AA807F073F9237AC3F30112C3F3D4
:104C300042038DF829208DF82C30B9F1000FECD10A
:104C4000079BB3B3AEBBB8F1070F2FD8B8F1030F72
:104C5000637A31D903F07003702B79D122686368CD
:104C6000C5E9002301232B81217A05F11003C1F34B
:104C700042020720C1F3011106F0A6FBC8B9686122
:104C8000B4F9122005F1180304210AA8FFF78AFDE0
:104C9000B4F9142005F11C0305210AA8FFF782FDD1
:104CA000B4F9162005F12003062130E0B8F10C0F0D
:104CB0003CD06FF0150685E603F00E030E2B47D1AE
:104CC00022686368C5E9002301262E81217A05F157
:104CD0001003C1F342020320C1F3011106F074FB7B
:104CE00001460028E5D1B4F90C2005F118030AA803
:104CF000FFF758FDB4F90E2005F11C0331460AA850
:104D0000FFF750FDB4F9102005F1200302210AA895
:104D1000FFF748FD049B01261E6053E620CB0000F0
:104D200040420F00FFFF3F00E0CA0000637ADB074C
:104D30000ED5226863686E61C5E9002301232B81CB
:104D400009232B74B4F90A2005F118034146DEE764
:104D50006FF03C0636E600BFF8B5DFF8ACC0066978
:104D600000201D46044601276B7A944260F3060337
:104D70006B7228D12B7A6FF300032B72727862F377
:104D800005132B72327962F343032B7207F087F815
:104D900004460E4607F083F81C49C0F30E02A2FB3E
:104DA0000123E00B40EA4640D20B42EA4342F60BB5
:104DB000A0FB0103121801FB063343F100032A6034
:104DC0006B600020F8BD31F824300C2B08D8DFE8E8
:104DD00003F00D0D0D180D0D0D16070707070D003B
:104DE0000023184300F07F000134BDE7072B94BF78
:104DF0001CF90330002307FA03F3DBB2F1E7702359
:104E0000EFE70E23EDE700BF08DA000000CA9A3B87
:104E1000014B0B600020704730C6000030B40346E1
:104E20000A4600681979836805699C697CB1130298
:104E300006D52D6801238B402B4218BF82F0C0623B
:104E4000054BA446134030BC02F0B07260476FF0CF
:104E5000570030BC704700BF40000006F8B54468FA
:104E600006690546A06940B9264A2748012105F090
:104E700074FF6FF012052846F8BD06F0F6FD08B97C
:104E8000224AF2E73562E38BA069217F43F4803246
:104E90000769D0F808C03D6813F0010F4FF0010317
:104EA00003FA01F314BF2B4325EA03033B60DCF84C
:104EB00000309847237F1648012202FA03F3C6E91F
:104EC0000A03A0698368DB6906F1240143B19847AE
:104ED000051E08DA0F4A0C48012105F03EFFCAE71B
:104EE0006FF05705F6E706F1380006F04FFE0A4B63
:104EF000736104F118004FF0B861BDE8F840FFF7A6
:104F00008DBF00BF21DA000080C5000050DA00002C
:104F100001B5000064DA0000CFB500002DE9F041D2
:104F2000044647680D4606F079FE4FF0200888B920
:104F3000264B1B7873B16426606806F074FBF0B9E9
:104F4000012006F075FC013EF6D10021212002F07F
:104F500097FFF0E7EFF31186314688F31288BFF32D
:104F60006F8F606806F05FFBA8B986F31188BFF306
:104F70006F8FEFE786F31188BFF36F8FE5E7EFF3ED
:104F80001186314688F31288BFF36F8F606806F090
:104F90004AFB0028EED0BB691D706368BA691B68C4
:104FA0000020C3F844250122C3F84825C3F8200196
:104FB000D3F82041C3F85801D3F858019A6081F31F
:104FC0001188BFF36F8FBDE8F08100BFBF180020CC
:104FD000F7B50546002201210220FDF773FD0220EE
:104FE000FDF740FD6A6811681369C1F82435137D27
:104FF000507D927D03431343C1F86C356E68D6E94A
:10500000004313F0010350D02F6907F1080006F0A8
:105010001BFC334B984208D03248334A012105F03B
:105020009CFE6FF0040003B0F0BD387A04F10C026E
:1050300004F5907106F0FEFB387A012707FA00F0BC
:1050400000F00CFF0823C4F80035B369C4F84435F8
:105050000023C4F84835A760D4F85831002BFBD0A2
:105060000021C4F800156B68DC6801AA204606F030
:10507000F2F8002805DB019B226819791868FEF711
:1050800029FD6A6813680821C3F80015117A51B91F
:10509000D269C3F834250122C3F83825C3F81011AA
:1050A000D3F810111A600020BDE70822C4F80025CB
:1050B000B269C4F84425C4F848350123A360D4F884
:1050C0002031002BFBD00023C4F82031D4F820314C
:1050D0000123E3604FF48073C4F80433BCE700BFDE
:1050E0000000AD0B08C600008EDA00002DE9F04785
:1050F0004568D0F8108000AF06460021686B06F0C6
:10510000DDFA041E11DBA96B481C1AD005F13C0026
:1051100000F05AFB10F1130F04460AD1334A344809
:10512000012106F0B1FA6FF012042046BD46BDE839
:10513000F087411D05D12F4A2D48012106F0A4FA20
:10514000F3E7EB6A9847D8F808504FF00109D8E91F
:10515000023203EBC2039D420AD3404606F0F1FA45
:1051600073680021586B06F0A9FA00EAE074DCE7E6
:10517000286806F07AFC0346B0B92A6829791068D5
:105180006C468AB06A461C4DD1614FF4007111849F
:105190001A49C2E9055042F8101F15484FF4115141
:1051A000FCF750FCA546BEE728682979EB88D0F8C3
:1051B00010C0D0F808A0DCF80040DA0754BF43F470
:1051C000B01383F4D01323F4801209FA01FEDB0735
:1051D0004CBF4EEA040424EA0E04CCF80040DAF88E
:1051E00000309847041EA0DB0835B0E7CBDA00009A
:1051F000F8C50000F6DA000013DB0000040000012F
:105200002DE9FF410569D0F804802B6D0646A86C96
:10521000002835D1002B53D0B8F830406A6CEF6CC1
:105220009C4228BF1C46EB6C53B1296D41B107F07D
:105230006041B1F1005F03D0082C6F6E28BF0824D5
:1052400000926A6CAC651AB1AA6C002A18BF22469B
:10525000CDE901271BB12B6D002B18BF234600227F
:1052600069464046039301F057FD184B984229D0F8
:105270006FF00401304604B0BDE8F04106F083BA97
:10528000696CEF6CB8F830400A46ABB1834228BF76
:1052900003469C4228BF1C460029C4D001F060434D
:1052A000B3F1005FBFD0082C28BF08242246286E27
:1052B00006F01FFE2A6EB6E7844228BF0446EBE7DD
:1052C0001946D7E704B0BDE8F08100BF0000AD0B80
:1052D00010B502780346002A5FD10C69A26D32B97D
:1052E000606D6FF07301BDE8104006F04CBAE06CE1
:1052F00040B1216D31B1DB6823B1834202D0616ED0
:1053000006F0F7FDA36CA26D33B19A4213D9234A7C
:105310002348012106F0B8F9236DA26D33B19A42FA
:1053200022D91E4A1E48012106F0AEF9606DBDE883
:105330001040FFF765BF9B1AA3647BB9636B08330A
:105340006363A36B013BA36304F1480204F13801DA
:1053500004F1340006F09FF96064DDE7636C002B14
:10536000DAD013446364D7E79B1A23657BB9E36BF8
:105370000833E363236C013B236404F1500204F11E
:10538000400104F13C0006F086F9E064CEE7E36CEE
:10539000002BCBD01344E364C8E710BD37DB00001B
:1053A000F8C500002DE9F04F8DB000AF8846FB60D6
:1053B0004368BB608B88046999040546914633D4E1
:1053C0004FF0FF324FF0FF3304F1100002F0DAF833
:1053D000C4F80480D5F804B0D5F810A0DBF8083084
:1053E0003B609AF85D3023B1DAF80030984500F060
:1053F000DF80B8F8046016F400631CD0B14AB248EC
:10540000012106F041F96FF0850623689B8813F4AB
:10541000005304D1636004F1100002F08FF83046AD
:105420003437BD46BDE8F08FA369002BC8D163684F
:105430009845C5D1CEE7F20715D529686D4688B0E5
:105440006A46A248C2E905014FF400719183A04960
:1054500042F8101F9C484FF4E251FCF7F3FAAD46B6
:105460006FF01506D1E7300705D59A4A9648012115
:1054700006F00AF9F4E7C6F34513082B01D0964A63
:10548000F4E7D8F800307B607A68944B9A4201D8F0
:10549000934AEBE70BF10C0EBEE80F0007F1100C7E
:1054A000ACE80F009EE80F008CE80F00D7E900235E
:1054B0009A4228BF1A468B4B9A4217D28A4B9A427D
:1054C00014D28A4B9A4211D2894B9A424FD8894BB7
:1054D0009A424ED8884B9A424DD8884B9A424CD823
:1054E0008748884B8849824288BF0B46B1077B6258
:1054F00006F0040343D5002B14BF0323022387F8CF
:105500002830C6F3001387F82930DBF80030D3F8D1
:10551000082516F0020F4FEA5213C6F3400102F0BD
:105520001F0233D17BB3012B40F027817749012340
:105530009340C1F80C359AF85D302BB1584601F014
:10554000B1FB00238AF85D30714A2B4607F1100148
:10555000584601F073FB6F4A9042034623D06E4ACF
:105560005948012105F002FC6FF004064DE76B4B32
:10557000BCE76B4BBAE76B4BB8E76B4BB6E7003B4E
:1055800018BF0123BBE74FF0A041D0E743B1012B87
:1055900040F0F6805D4901239340C1F80835CAE721
:1055A0004FF0A041F7E701238AF85D30CAF8008088
:1055B000012384F85C30BB68996B4A1C0AD003F164
:1055C0003C0006F0F1F8743004D1584A3E480221FC
:1055D00006F05AF8B9F1000F6BD1C4F834900023EB
:1055E000A36304F1480204F1380104F1340006F029
:1055F00052F8FB686064002B40F09C80E36300235A
:10560000236404F1500204F1400104F13C0006F06F
:1056100042F800263246E06401212046266306F067
:1056200070F82846FFF7ECFDA06B32463346834204
:1056300040F089800023266C1946B14240F08A80F0
:105640009342A04638BF13464FF4FA5202FB03F6CA
:1056500058F8203B4FF4004C1B68B6FBF3F640F2C1
:10566000E730C83600214FF47A720023E6FB0C01C4
:10567000FAF796FD02460B46404601F083FF0246CC
:1056800000286ED02A4A1048012105F0FDFF0026AF
:10569000B868A66501F006FB84F85D606FF07301E1
:1056A000284606F070F8404601F092FF6FF073064E
:1056B000ABE6D9F800306363002B90D0D9F8043002
:1056C0008EE700BF55DB0000F8C500006FDB00006F
:1056D0000300000191DB0000B0DB000047E801009F
:1056E000DFDB00000048E8010024F40000127A002B
:1056F000FF083D007F841E003F420F001FA10700EE
:105700008FD0030048E8010090D003000003005050
:10571000D15200000000AD0B10DC000000093D007C
:1057200080841E0040420F0020A1070037DC0000EB
:1057300061DC0000FB681B68E363002B3FF45FAF94
:10574000FB685B685CE7616B01EBC301013349688F
:105750000A446CE7E06B00EBC10001314068034490
:105760006BE7266B16F1740F91D0002E3FF44DAE0F
:105770000146286905F0C5FF47E6C1F80C15FFDEB4
:105780000023C3F80835FAE700F01F0240090DD0E6
:1057900001280ED10A4B03EB82030A4AD3F8000713
:1057A000024042EA8102C3F8002770474FF0A0434D
:1057B000F1E702F5E072002353F82230FFDE00BF6C
:1057C00000030050F0F8FCFFF0B587B001238DF81E
:1057D000023002238DF804306B4403930F4601AB73
:1057E0000DF103010024049305460291059400F095
:1057F00043FF0C4B984206460FD103AA3946284670
:1058000000F09EFDB0420BD09DF80310284600F03A
:105810002DFF6FF0040007B0F0BD6FF01200FAE743
:105820002046F8E70000AD0B70B5012383400E4A17
:10583000BFF35B8FDC4352E8001F01EA040542E836
:105840000056002EF7D1BFF35B8F4FF480328240B9
:105850000648C0F80823BFF35F8FBFF36F8F0B427A
:1058600014BF0120002070BD501600200010014020
:1058700070B40E49D1E90034D01AC31844F10004C1
:1058800022F07F46C1E90034A6F50013B3F5400FBE
:1058900009D2074B1B681A0A1B069C19054B42F1DB
:1058A0000005C3E9004570BC02F080BC500D00202B
:1058B00054160020580D002011B3BFF35B8F012355
:1058C000104A834052E800CF4CEA030C42E800C182
:1058D0000029F7D1BFF35B8F0B4A4FF4803383402D
:1058E000C2F80433094BBFF35B8F1B68BFF35B8FB8
:1058F000C340DB0742BF064B4FF40032C3F8002120
:10590000704700BF50160020001001404C160020C8
:1059100000E100E00D4B1868010A0006BFF35F8F3D
:105920000B4BD3F80435181841F10001B3F5801F73
:105930000AD2084BD3E90023904271EB030303D250
:1059400010F1807041F10001704700BF5416002033
:1059500000100140580D00202DE9F04F85B016468B
:105960001F469DF840A00446FFF75EFF0190FFF739
:10597000D1FFB04271EB070354D23E4B301A67EBB4
:105980000101984271F100014FD23B4B03EB04132C
:10599000D3E902239F4208BF96425ED037494FF4B5
:1059A000803804F1500508FA04F8AD00C1F84883C6
:1059B0002046ADB205F020FF26F07F4B05F1804573
:1059C00004F5A87305F58835DC464FF0030902930A
:1059D000029A2CF07F4341F82230C1F84483D1F879
:1059E0000435274A6FF00200C01A604420F07F405F
:1059F000904232D9286868B1D1F804350393A3EBFB
:105A00000B0020F07F40B0F5000F26D9204605F0AE
:105A1000F3FE039BBAF1000F07D109EB030C09F168
:105A20000109D5E7BAF1000F09D06FF0150520463E
:105A30000199FFF741FF284605B0BDE8F08F01232B
:105A4000104ABFF35B8FA34052E8000F184342E8AF
:105A500000010029F8D1BFF35B8F07490E9823019D
:105A600001EB0412C8500F9B5360C2E90267002586
:105A7000DDE700BF01008000400D00200010014064
:105A8000FDFF7F004C1600207FB51C4C1C4BC4F85A
:105A90000833C4F848331B4B00254FF0FF304FF05C
:105AA000FF31C4F80855C3E902014FF48033C4F84C
:105AB0000433154B02264FF400320121C4F804636D
:105AC0001120C3F880212A46FCF7FCFF1120FCF7C7
:105AD000C9FF0E4A0123A360236013600C4B0D4ADB
